{
  "_format": "hh-sol-artifact-1",
  "contractName": "MultiSig",
  "sourceName": "contracts/MultiSig.sol",
  "abi": [
    {
      "inputs": [
        {
          "internalType": "address[]",
          "name": "_owners",
          "type": "address[]"
        },
        {
          "internalType": "uint256",
          "name": "_numConfirmationsRequired",
          "type": "uint256"
        }
      ],
      "stateMutability": "nonpayable",
      "type": "constructor"
    },
    {
      "anonymous": false,
      "inputs": [
        {
          "indexed": true,
          "internalType": "address",
          "name": "owner",
          "type": "address"
        },
        {
          "indexed": true,
          "internalType": "uint256",
          "name": "txIndex",
          "type": "uint256"
        }
      ],
      "name": "ConfirmTransaction",
      "type": "event"
    },
    {
      "anonymous": false,
      "inputs": [
        {
          "indexed": true,
          "internalType": "address",
          "name": "sender",
          "type": "address"
        },
        {
          "indexed": false,
          "internalType": "uint256",
          "name": "amount",
          "type": "uint256"
        },
        {
          "indexed": false,
          "internalType": "uint256",
          "name": "balance",
          "type": "uint256"
        }
      ],
      "name": "Deposit",
      "type": "event"
    },
    {
      "anonymous": false,
      "inputs": [
        {
          "indexed": true,
          "internalType": "address",
          "name": "owner",
          "type": "address"
        },
        {
          "indexed": true,
          "internalType": "uint256",
          "name": "txIndex",
          "type": "uint256"
        }
      ],
      "name": "ExecuteTransaction",
      "type": "event"
    },
    {
      "anonymous": false,
      "inputs": [
        {
          "indexed": true,
          "internalType": "address",
          "name": "owner",
          "type": "address"
        },
        {
          "indexed": true,
          "internalType": "uint256",
          "name": "txIndex",
          "type": "uint256"
        }
      ],
      "name": "RevokeConfirmation",
      "type": "event"
    },
    {
      "anonymous": false,
      "inputs": [
        {
          "indexed": true,
          "internalType": "address",
          "name": "owner",
          "type": "address"
        },
        {
          "indexed": true,
          "internalType": "uint256",
          "name": "txIndex",
          "type": "uint256"
        },
        {
          "indexed": true,
          "internalType": "address",
          "name": "to",
          "type": "address"
        },
        {
          "indexed": false,
          "internalType": "uint256",
          "name": "value",
          "type": "uint256"
        }
      ],
      "name": "SubmitTransaction",
      "type": "event"
    },
    {
      "inputs": [
        {
          "internalType": "uint256",
          "name": "_txIndex",
          "type": "uint256"
        }
      ],
      "name": "confirmTransaction",
      "outputs": [],
      "stateMutability": "nonpayable",
      "type": "function"
    },
    {
      "inputs": [
        {
          "internalType": "uint256",
          "name": "_txIndex",
          "type": "uint256"
        }
      ],
      "name": "executeTransaction",
      "outputs": [],
      "stateMutability": "nonpayable",
      "type": "function"
    },
    {
      "inputs": [],
      "name": "getOwners",
      "outputs": [
        {
          "internalType": "address[]",
          "name": "",
          "type": "address[]"
        }
      ],
      "stateMutability": "view",
      "type": "function"
    },
    {
      "inputs": [
        {
          "internalType": "uint256",
          "name": "_txIndex",
          "type": "uint256"
        }
      ],
      "name": "getTransaction",
      "outputs": [
        {
          "internalType": "address",
          "name": "to",
          "type": "address"
        },
        {
          "internalType": "uint256",
          "name": "value",
          "type": "uint256"
        },
        {
          "internalType": "bytes",
          "name": "data",
          "type": "bytes"
        },
        {
          "internalType": "bool",
          "name": "executed",
          "type": "bool"
        },
        {
          "internalType": "uint256",
          "name": "numConfirmations",
          "type": "uint256"
        }
      ],
      "stateMutability": "view",
      "type": "function"
    },
    {
      "inputs": [],
      "name": "getTransactionCount",
      "outputs": [
        {
          "internalType": "uint256",
          "name": "",
          "type": "uint256"
        }
      ],
      "stateMutability": "view",
      "type": "function"
    },
    {
      "inputs": [
        {
          "internalType": "uint256",
          "name": "",
          "type": "uint256"
        },
        {
          "internalType": "address",
          "name": "",
          "type": "address"
        }
      ],
      "name": "isConfirmed",
      "outputs": [
        {
          "internalType": "bool",
          "name": "",
          "type": "bool"
        }
      ],
      "stateMutability": "view",
      "type": "function"
    },
    {
      "inputs": [
        {
          "internalType": "address",
          "name": "",
          "type": "address"
        }
      ],
      "name": "isOwner",
      "outputs": [
        {
          "internalType": "bool",
          "name": "",
          "type": "bool"
        }
      ],
      "stateMutability": "view",
      "type": "function"
    },
    {
      "inputs": [],
      "name": "numConfirmationsRequired",
      "outputs": [
        {
          "internalType": "uint256",
          "name": "",
          "type": "uint256"
        }
      ],
      "stateMutability": "view",
      "type": "function"
    },
    {
      "inputs": [
        {
          "internalType": "uint256",
          "name": "",
          "type": "uint256"
        }
      ],
      "name": "owners",
      "outputs": [
        {
          "internalType": "address",
          "name": "",
          "type": "address"
        }
      ],
      "stateMutability": "view",
      "type": "function"
    },
    {
      "inputs": [
        {
          "internalType": "uint256",
          "name": "_txIndex",
          "type": "uint256"
        }
      ],
      "name": "revokeConfirmation",
      "outputs": [],
      "stateMutability": "nonpayable",
      "type": "function"
    },
    {
      "inputs": [
        {
          "internalType": "address payable",
          "name": "_to",
          "type": "address"
        }
      ],
      "name": "send",
      "outputs": [],
      "stateMutability": "payable",
      "type": "function"
    },
    {
      "inputs": [
        {
          "internalType": "address",
          "name": "_to",
          "type": "address"
        },
        {
          "internalType": "uint256",
          "name": "_value",
          "type": "uint256"
        }
      ],
      "name": "submitTransaction",
      "outputs": [],
      "stateMutability": "nonpayable",
      "type": "function"
    },
    {
      "inputs": [
        {
          "internalType": "uint256",
          "name": "",
          "type": "uint256"
        }
      ],
      "name": "transactions",
      "outputs": [
        {
          "internalType": "address",
          "name": "to",
          "type": "address"
        },
        {
          "internalType": "uint256",
          "name": "value",
          "type": "uint256"
        },
        {
          "internalType": "bytes",
          "name": "data",
          "type": "bytes"
        },
        {
          "internalType": "bool",
          "name": "executed",
          "type": "bool"
        },
        {
          "internalType": "uint256",
          "name": "numConfirmations",
          "type": "uint256"
        }
      ],
      "stateMutability": "view",
      "type": "function"
    },
    {
      "stateMutability": "payable",
      "type": "receive"
    }
  ],
  "bytecode": "0x608060405273921fbaa41976e2b17fd3f27a5e0d6931ba443b20600360006101000a81548173ffffffffffffffffffffffffffffffffffffffff021916908373ffffffffffffffffffffffffffffffffffffffff1602179055503480156200006657600080fd5b50604051620025ed380380620025ed83398181016040528101906200008c919062000562565b6000825111620000d3576040517f08c379a0000000000000000000000000000000000000000000000000000000008152600401620000ca9062000629565b60405180910390fd5b600081118015620000e5575081518111155b62000127576040517f08c379a00000000000000000000000000000000000000000000000000000000081526004016200011e90620006c1565b60405180910390fd5b60005b8251811015620003295760008382815181106200014c576200014b620006e3565b5b60200260200101519050600073ffffffffffffffffffffffffffffffffffffffff168173ffffffffffffffffffffffffffffffffffffffff1603620001c8576040517f08c379a0000000000000000000000000000000000000000000000000000000008152600401620001bf9062000762565b60405180910390fd5b600160008273ffffffffffffffffffffffffffffffffffffffff1673ffffffffffffffffffffffffffffffffffffffff16815260200190815260200160002060009054906101000a900460ff161562000258576040517f08c379a00000000000000000000000000000000000000000000000000000000081526004016200024f90620007d4565b60405180910390fd5b60018060008373ffffffffffffffffffffffffffffffffffffffff1673ffffffffffffffffffffffffffffffffffffffff16815260200190815260200160002060006101000a81548160ff0219169083151502179055506000819080600181540180825580915050600190039060005260206000200160009091909190916101000a81548173ffffffffffffffffffffffffffffffffffffffff021916908373ffffffffffffffffffffffffffffffffffffffff160217905550508080620003209062000825565b9150506200012a565b5080600281905550505062000872565b6000604051905090565b600080fd5b600080fd5b600080fd5b6000601f19601f8301169050919050565b7f4e487b7100000000000000000000000000000000000000000000000000000000600052604160045260246000fd5b6200039d8262000352565b810181811067ffffffffffffffff82111715620003bf57620003be62000363565b5b80604052505050565b6000620003d462000339565b9050620003e2828262000392565b919050565b600067ffffffffffffffff82111562000405576200040462000363565b5b602082029050602081019050919050565b600080fd5b600073ffffffffffffffffffffffffffffffffffffffff82169050919050565b600062000448826200041b565b9050919050565b6200045a816200043b565b81146200046657600080fd5b50565b6000815190506200047a816200044f565b92915050565b6000620004976200049184620003e7565b620003c8565b90508083825260208201905060208402830185811115620004bd57620004bc62000416565b5b835b81811015620004ea5780620004d5888262000469565b845260208401935050602081019050620004bf565b5050509392505050565b600082601f8301126200050c576200050b6200034d565b5b81516200051e84826020860162000480565b91505092915050565b6000819050919050565b6200053c8162000527565b81146200054857600080fd5b50565b6000815190506200055c8162000531565b92915050565b600080604083850312156200057c576200057b62000343565b5b600083015167ffffffffffffffff8111156200059d576200059c62000348565b5b620005ab85828601620004f4565b9250506020620005be858286016200054b565b9150509250929050565b600082825260208201905092915050565b7f6f776e6572732072657175697265640000000000000000000000000000000000600082015250565b600062000611600f83620005c8565b91506200061e82620005d9565b602082019050919050565b60006020820190508181036000830152620006448162000602565b9050919050565b7f696e76616c6964206e756d626572206f6620726571756972656420636f6e666960008201527f726d6174696f6e73000000000000000000000000000000000000000000000000602082015250565b6000620006a9602883620005c8565b9150620006b6826200064b565b604082019050919050565b60006020820190508181036000830152620006dc816200069a565b9050919050565b7f4e487b7100000000000000000000000000000000000000000000000000000000600052603260045260246000fd5b7f696e76616c6964206f776e657200000000000000000000000000000000000000600082015250565b60006200074a600d83620005c8565b9150620007578262000712565b602082019050919050565b600060208201905081810360008301526200077d816200073b565b9050919050565b7f6f776e6572206e6f7420756e6971756500000000000000000000000000000000600082015250565b6000620007bc601083620005c8565b9150620007c98262000784565b602082019050919050565b60006020820190508181036000830152620007ef81620007ad565b9050919050565b7f4e487b7100000000000000000000000000000000000000000000000000000000600052601160045260246000fd5b6000620008328262000527565b91507fffffffffffffffffffffffffffffffffffffffffffffffffffffffffffffffff8203620008675762000866620007f6565b5b600182019050919050565b611d6b80620008826000396000f3fe6080604052600436106100c65760003560e01c80633e58c58c1161007f578063a0e67e2b11610059578063a0e67e2b146102f4578063c01a8c841461031f578063d0549b8514610348578063ee22610b146103735761011d565b80633e58c58c1461025a57806380f59a65146102765780639ace38c2146102b35761011d565b8063025e7c27146101225780631d43b6531461015f57806320ea8d86146101885780632e7700f0146101b15780632f54bf6e146101dc57806333ea3dc8146102195761011d565b3661011d573373ffffffffffffffffffffffffffffffffffffffff167f90890809c654f11d6e72a28fa60149770a0d11ec6c92319d6ceb2bb0a4ea1a153447604051610113929190611352565b60405180910390a2005b600080fd5b34801561012e57600080fd5b50610149600480360381019061014491906113ac565b61039c565b604051610156919061141a565b60405180910390f35b34801561016b57600080fd5b5061018660048036038101906101819190611461565b6103db565b005b34801561019457600080fd5b506101af60048036038101906101aa91906113ac565b610671565b005b3480156101bd57600080fd5b506101c661094b565b6040516101d391906114a1565b60405180910390f35b3480156101e857600080fd5b5061020360048036038101906101fe91906114bc565b610958565b6040516102109190611504565b60405180910390f35b34801561022557600080fd5b50610240600480360381019061023b91906113ac565b610978565b6040516102519594939291906115b8565b60405180910390f35b610274600480360381019061026f9190611650565b610a8b565b005b34801561028257600080fd5b5061029d6004803603810190610298919061167d565b610b08565b6040516102aa9190611504565b60405180910390f35b3480156102bf57600080fd5b506102da60048036038101906102d591906113ac565b610b37565b6040516102eb9594939291906115b8565b60405180910390f35b34801561030057600080fd5b50610309610c32565b604051610316919061177b565b60405180910390f35b34801561032b57600080fd5b50610346600480360381019061034191906113ac565b610cc0565b005b34801561035457600080fd5b5061035d610f9d565b60405161036a91906114a1565b60405180910390f35b34801561037f57600080fd5b5061039a600480360381019061039591906113ac565b610fa3565b005b600081815481106103ac57600080fd5b906000526020600020016000915054906101000a900473ffffffffffffffffffffffffffffffffffffffff1681565b600160003373ffffffffffffffffffffffffffffffffffffffff1673ffffffffffffffffffffffffffffffffffffffff16815260200190815260200160002060009054906101000a900460ff16610467576040517f08c379a000000000000000000000000000000000000000000000000000000000815260040161045e906117fa565b60405180910390fd5b6000600580549050905060056040518060a001604052808573ffffffffffffffffffffffffffffffffffffffff16815260200184815260200185856040516024016104b392919061181a565b6040516020818303038152906040527fa9059cbb000000000000000000000000000000000000000000000000000000007bffffffffffffffffffffffffffffffffffffffffffffffffffffffff19166020820180517bffffffffffffffffffffffffffffffffffffffffffffffffffffffff838183161783525050505081526020016000151581526020016000815250908060018154018082558091505060019003906000526020600020906005020160009091909190915060008201518160000160006101000a81548173ffffffffffffffffffffffffffffffffffffffff021916908373ffffffffffffffffffffffffffffffffffffffff1602179055506020820151816001015560408201518160020190805190602001906105d9929190611296565b5060608201518160030160006101000a81548160ff0219169083151502179055506080820151816004015550508273ffffffffffffffffffffffffffffffffffffffff16813373ffffffffffffffffffffffffffffffffffffffff167fcd144288a078b7562351164feb1762115faca27f30827b4142f2bbe27166e3208560405161066491906114a1565b60405180910390a4505050565b600160003373ffffffffffffffffffffffffffffffffffffffff1673ffffffffffffffffffffffffffffffffffffffff16815260200190815260200160002060009054906101000a900460ff166106fd576040517f08c379a00000000000000000000000000000000000000000000000000000000081526004016106f4906117fa565b60405180910390fd5b806005805490508110610745576040517f08c379a000000000000000000000000000000000000000000000000000000000815260040161073c9061188f565b60405180910390fd5b816005818154811061075a576107596118af565b5b906000526020600020906005020160030160009054906101000a900460ff16156107b9576040517f08c379a00000000000000000000000000000000000000000000000000000000081526004016107b09061192a565b60405180910390fd5b6000600584815481106107cf576107ce6118af565b5b906000526020600020906005020190506004600085815260200190815260200160002060003373ffffffffffffffffffffffffffffffffffffffff1673ffffffffffffffffffffffffffffffffffffffff16815260200190815260200160002060009054906101000a900460ff1661087c576040517f08c379a000000000000000000000000000000000000000000000000000000000815260040161087390611996565b60405180910390fd5b600181600401600082825461089191906119e5565b9250508190555060006004600086815260200190815260200160002060003373ffffffffffffffffffffffffffffffffffffffff1673ffffffffffffffffffffffffffffffffffffffff16815260200190815260200160002060006101000a81548160ff021916908315150217905550833373ffffffffffffffffffffffffffffffffffffffff167ff0dca620e2e81f7841d07bcc105e1704fb01475b278a9d4c236e1c62945edd5560405160405180910390a350505050565b6000600580549050905090565b60016020528060005260406000206000915054906101000a900460ff1681565b6000806060600080600060058781548110610996576109956118af565b5b906000526020600020906005020190508060000160009054906101000a900473ffffffffffffffffffffffffffffffffffffffff168160010154826002018360030160009054906101000a900460ff1684600401548280546109f790611a48565b80601f0160208091040260200160405190810160405280929190818152602001828054610a2390611a48565b8015610a705780601f10610a4557610100808354040283529160200191610a70565b820191906000526020600020905b815481529060010190602001808311610a5357829003601f168201915b50505050509250955095509550955095505091939590929450565b60008173ffffffffffffffffffffffffffffffffffffffff166108fc349081150290604051600060405180830381858888f19350505050905080610b04576040517f08c379a0000000000000000000000000000000000000000000000000000000008152600401610afb90611ac5565b60405180910390fd5b5050565b60046020528160005260406000206020528060005260406000206000915091509054906101000a900460ff1681565b60058181548110610b4757600080fd5b90600052602060002090600502016000915090508060000160009054906101000a900473ffffffffffffffffffffffffffffffffffffffff1690806001015490806002018054610b9690611a48565b80601f0160208091040260200160405190810160405280929190818152602001828054610bc290611a48565b8015610c0f5780601f10610be457610100808354040283529160200191610c0f565b820191906000526020600020905b815481529060010190602001808311610bf257829003601f168201915b5050505050908060030160009054906101000a900460ff16908060040154905085565b60606000805480602002602001604051908101604052809291908181526020018280548015610cb657602002820191906000526020600020905b8160009054906101000a900473ffffffffffffffffffffffffffffffffffffffff1673ffffffffffffffffffffffffffffffffffffffff1681526020019060010190808311610c6c575b5050505050905090565b600160003373ffffffffffffffffffffffffffffffffffffffff1673ffffffffffffffffffffffffffffffffffffffff16815260200190815260200160002060009054906101000a900460ff16610d4c576040517f08c379a0000000000000000000000000000000000000000000000000000000008152600401610d43906117fa565b60405180910390fd5b806005805490508110610d94576040517f08c379a0000000000000000000000000000000000000000000000000000000008152600401610d8b9061188f565b60405180910390fd5b8160058181548110610da957610da86118af565b5b906000526020600020906005020160030160009054906101000a900460ff1615610e08576040517f08c379a0000000000000000000000000000000000000000000000000000000008152600401610dff9061192a565b60405180910390fd5b826004600082815260200190815260200160002060003373ffffffffffffffffffffffffffffffffffffffff1673ffffffffffffffffffffffffffffffffffffffff16815260200190815260200160002060009054906101000a900460ff1615610ea7576040517f08c379a0000000000000000000000000000000000000000000000000000000008152600401610e9e90611b31565b60405180910390fd5b600060058581548110610ebd57610ebc6118af565b5b906000526020600020906005020190506001816004016000828254610ee29190611b51565b9250508190555060016004600087815260200190815260200160002060003373ffffffffffffffffffffffffffffffffffffffff1673ffffffffffffffffffffffffffffffffffffffff16815260200190815260200160002060006101000a81548160ff021916908315150217905550843373ffffffffffffffffffffffffffffffffffffffff167f5cbe105e36805f7820e291f799d5794ff948af2a5f664e580382defb6339004160405160405180910390a35050505050565b60025481565b600160003373ffffffffffffffffffffffffffffffffffffffff1673ffffffffffffffffffffffffffffffffffffffff16815260200190815260200160002060009054906101000a900460ff1661102f576040517f08c379a0000000000000000000000000000000000000000000000000000000008152600401611026906117fa565b60405180910390fd5b806005805490508110611077576040517f08c379a000000000000000000000000000000000000000000000000000000000815260040161106e9061188f565b60405180910390fd5b816005818154811061108c5761108b6118af565b5b906000526020600020906005020160030160009054906101000a900460ff16156110eb576040517f08c379a00000000000000000000000000000000000000000000000000000000081526004016110e29061192a565b60405180910390fd5b600060058481548110611101576111006118af565b5b906000526020600020906005020190506002548160040154101561115a576040517f08c379a000000000000000000000000000000000000000000000000000000000815260040161115190611bf3565b60405180910390fd5b60018160030160006101000a81548160ff0219169083151502179055506000600360009054906101000a900473ffffffffffffffffffffffffffffffffffffffff1673ffffffffffffffffffffffffffffffffffffffff166000836002016040516111c59190611cb2565b60006040518083038185875af1925050503d8060008114611202576040519150601f19603f3d011682016040523d82523d6000602084013e611207565b606091505b505090508061124b576040517f08c379a000000000000000000000000000000000000000000000000000000000815260040161124290611d15565b60405180910390fd5b843373ffffffffffffffffffffffffffffffffffffffff167f5445f318f4f5fcfb66592e68e0cc5822aa15664039bd5f0ffde24c5a8142b1ac60405160405180910390a35050505050565b8280546112a290611a48565b90600052602060002090601f0160209004810192826112c4576000855561130b565b82601f106112dd57805160ff191683800117855561130b565b8280016001018555821561130b579182015b8281111561130a5782518255916020019190600101906112ef565b5b509050611318919061131c565b5090565b5b8082111561133557600081600090555060010161131d565b5090565b6000819050919050565b61134c81611339565b82525050565b60006040820190506113676000830185611343565b6113746020830184611343565b9392505050565b600080fd5b61138981611339565b811461139457600080fd5b50565b6000813590506113a681611380565b92915050565b6000602082840312156113c2576113c161137b565b5b60006113d084828501611397565b91505092915050565b600073ffffffffffffffffffffffffffffffffffffffff82169050919050565b6000611404826113d9565b9050919050565b611414816113f9565b82525050565b600060208201905061142f600083018461140b565b92915050565b61143e816113f9565b811461144957600080fd5b50565b60008135905061145b81611435565b92915050565b600080604083850312156114785761147761137b565b5b60006114868582860161144c565b925050602061149785828601611397565b9150509250929050565b60006020820190506114b66000830184611343565b92915050565b6000602082840312156114d2576114d161137b565b5b60006114e08482850161144c565b91505092915050565b60008115159050919050565b6114fe816114e9565b82525050565b600060208201905061151960008301846114f5565b92915050565b600081519050919050565b600082825260208201905092915050565b60005b8381101561155957808201518184015260208101905061153e565b83811115611568576000848401525b50505050565b6000601f19601f8301169050919050565b600061158a8261151f565b611594818561152a565b93506115a481856020860161153b565b6115ad8161156e565b840191505092915050565b600060a0820190506115cd600083018861140b565b6115da6020830187611343565b81810360408301526115ec818661157f565b90506115fb60608301856114f5565b6116086080830184611343565b9695505050505050565b600061161d826113d9565b9050919050565b61162d81611612565b811461163857600080fd5b50565b60008135905061164a81611624565b92915050565b6000602082840312156116665761166561137b565b5b60006116748482850161163b565b91505092915050565b600080604083850312156116945761169361137b565b5b60006116a285828601611397565b92505060206116b38582860161144c565b9150509250929050565b600081519050919050565b600082825260208201905092915050565b6000819050602082019050919050565b6116f2816113f9565b82525050565b600061170483836116e9565b60208301905092915050565b6000602082019050919050565b6000611728826116bd565b61173281856116c8565b935061173d836116d9565b8060005b8381101561176e57815161175588826116f8565b975061176083611710565b925050600181019050611741565b5085935050505092915050565b60006020820190508181036000830152611795818461171d565b905092915050565b600082825260208201905092915050565b7f6e6f74206f776e65720000000000000000000000000000000000000000000000600082015250565b60006117e460098361179d565b91506117ef826117ae565b602082019050919050565b60006020820190508181036000830152611813816117d7565b9050919050565b600060408201905061182f600083018561140b565b61183c6020830184611343565b9392505050565b7f747820646f6573206e6f74206578697374000000000000000000000000000000600082015250565b600061187960118361179d565b915061188482611843565b602082019050919050565b600060208201905081810360008301526118a88161186c565b9050919050565b7f4e487b7100000000000000000000000000000000000000000000000000000000600052603260045260246000fd5b7f747820616c726561647920657865637574656400000000000000000000000000600082015250565b600061191460138361179d565b915061191f826118de565b602082019050919050565b6000602082019050818103600083015261194381611907565b9050919050565b7f7478206e6f7420636f6e6669726d656400000000000000000000000000000000600082015250565b600061198060108361179d565b915061198b8261194a565b602082019050919050565b600060208201905081810360008301526119af81611973565b9050919050565b7f4e487b7100000000000000000000000000000000000000000000000000000000600052601160045260246000fd5b60006119f082611339565b91506119fb83611339565b925082821015611a0e57611a0d6119b6565b5b828203905092915050565b7f4e487b7100000000000000000000000000000000000000000000000000000000600052602260045260246000fd5b60006002820490506001821680611a6057607f821691505b602082108103611a7357611a72611a19565b5b50919050565b7f4661696c656420746f2073656e64204574686572000000000000000000000000600082015250565b6000611aaf60148361179d565b9150611aba82611a79565b602082019050919050565b60006020820190508181036000830152611ade81611aa2565b9050919050565b7f747820616c726561647920636f6e6669726d6564000000000000000000000000600082015250565b6000611b1b60148361179d565b9150611b2682611ae5565b602082019050919050565b60006020820190508181036000830152611b4a81611b0e565b9050919050565b6000611b5c82611339565b9150611b6783611339565b9250827fffffffffffffffffffffffffffffffffffffffffffffffffffffffffffffffff03821115611b9c57611b9b6119b6565b5b828201905092915050565b7f63616e6e6f742065786563757465207478000000000000000000000000000000600082015250565b6000611bdd60118361179d565b9150611be882611ba7565b602082019050919050565b60006020820190508181036000830152611c0c81611bd0565b9050919050565b600081905092915050565b60008190508160005260206000209050919050565b60008154611c4081611a48565b611c4a8186611c13565b94506001821660008114611c655760018114611c7657611ca9565b60ff19831686528186019350611ca9565b611c7f85611c1e565b60005b83811015611ca157815481890152600182019150602081019050611c82565b838801955050505b50505092915050565b6000611cbe8284611c33565b915081905092915050565b7f7478206661696c65640000000000000000000000000000000000000000000000600082015250565b6000611cff60098361179d565b9150611d0a82611cc9565b602082019050919050565b60006020820190508181036000830152611d2e81611cf2565b905091905056fea2646970667358221220f6673ac6bb7f65e8b82f438cb0d8aaba8d0061e50a8bb727da4b7c812082a97a64736f6c634300080d0033",
  "linkReferences": {},
  "deployedLinkReferences": {}
}